S01700004763634170706C69636174696F6E332E7372656359
S11300000C942A000C9447000C9447000C9447006D
S11300100C9447000C9447000C9447000C94470040
S11300200C9447000C9447000C9447000C94470030
S11300300C9447000C9447000C9447000C94470020
S11300400C9447000C9447000C9447000C94470010
S11300500C94470011241FBECFE5D8E0DEBFCDBF0E
S113006010E0A0E6B0E0EEECF8E002C005900D92DE
S1130070A037B107D9F720E0A0E7B0E001C01D9296
S1130080A437B207E1F70E94AA030C9465040C9408
S11300900000843008F07EC0683008F07BC0423035
S11300A008F078C0813019F130F08230E1F183300A
S11300B009F455C00895442319F0413069F00895B6
S11300C02AB381E090E002C0880F991F6A95E2F795
S11300D0809582238ABB08952AB381E090E002C010
S11300E0880F991F6A95E2F7822B8ABB08954423EF
S11300F019F0413069F0089527B381E090E002C01F
S1130100880F991F6A95E2F78095822387BB08952B
S113011027B381E090E002C0880F991F6A95E2F747
S1130120822B87BB0895442319F0413069F0089568
S113013024B381E090E002C0880F991F6A95E2F72A
S11301408095822384BB089524B381E090E002C0AB
S1130150880F991F6A95E2F7822B84BB0895442384
S113016019F0413069F0089521B381E090E002C0B4
S1130170880F991F6A95E2F78095822381BB0895C1
S113018021B381E090E002C0880F991F6A95E2F7DD
S1130190822B81BB0895843008F07EC0683008F05B
S11301A07BC0423008F078C0813019F130F08230E1
S11301B0E1F1833009F455C00895442319F0413026
S11301C069F008952BB381E090E002C0880F991F75
S11301D06A95E2F7809582238BBB08952BB381E067
S11301E090E002C0880F991F6A95E2F7822B8BBBBF
S11301F00895442319F0413069F0089528B381E04B
S113020090E002C0880F991F6A95E2F780958223D7
S113021088BB089528B381E090E002C0880F991F3D
S11302206A95E2F7822B88BB0895442319F0413084
S113023069F0089525B381E090E002C0880F991F0A
S11302406A95E2F78095822385BB089525B381E002
S113025090E002C0880F991F6A95E2F7822B85BB54
S11302600895442319F0413069F0089522B381E0E0
S113027090E002C0880F991F6A95E2F78095822367
S113028082BB089522B381E090E002C0880F991FD9
S11302906A95E2F7822B82BB08958430C0F56830FA
S11302A0B0F54115510599F1813089F028F082307B
S11302B0C9F0833011F1089589B390E002C0959597
S11302C087956A95E2F78170FA018083089586B371
S11302D090E002C0959587956A95E2F78170FA01DE
S11302E08083089583B390E002C0959587956A95BD
S11302F0E2F78170FA018083089580B390E002C030
S1130300959587956A95E2F78170FA01808308953F
S11303108430A8F5683098F5813089F028F082306F
S1130320C9F0833011F108952BB381E090E002C04D
S1130330880F991F6A95E2F7822B8BBB089528B327
S113034081E090E002C0880F991F6A95E2F7822B42
S113035088BB089525B381E090E002C0880F991FFF
S11303606A95E2F7822B85BB089522B381E090E081
S113037002C0880F991F6A95E2F7822B82BB089509
S113038040E063E082E00E94490040E064E082E0F3
S11303900E94490040E065E082E00E94490040E09C
S11303A066E082E00E94490063E082E00E948801E6
S11303B064E082E00E94880165E082E00E94880196
S11303C066E082E00E94880141E064E081E00E94EE
S11303D0490041E065E081E00E94490041E066E0B7
S11303E081E00E94490041E067E081E00E94490009
S11303F041E064E081E00E94CB0041E065E081E0FF
S11304000E94CB0041E066E081E00E94CB0041E025
S113041067E081E00E94CB0008956F927F928F92F3
S11304209F92AF92BF92CF92DF92EF92FF920F937F
S11304301F93CF93DF93CDB7DEB7A1970FB6F89490
S1130440DEBF0FBECDBF009709F481C05C0181E01F
S11304508D8F8E8F8F8F88A334E0398F25E02A8F7C
S113046096E09B8F87E08C8F82E08D8B8E8B8F8BB9
S1130470888F83E0898B3A8B2B8B9C8B80E1E0E621
S1130480F0E0DE01119601900D928A95E1F78FEF6D
S1130490F501808300E058C0C02ED12CE9E1F0E0E2
S11304A0EC0FFD1FEC0DFD1D8080EDE1F0E0EC0F85
S11304B0FD1FEC0DFD1D908040E0682D892D0E94EC
S11304C0CB0010E037C0E12EF12CE1E1F0E0EC0FBD
S11304D0FD1FEE0DFF1D7080E5E1F0E0EC0FFD1F48
S11304E0EE0DFF1D6080AE014F5D5F4F672D862DC1
S11304F00E944D0189A181111CC007C0AE014F5D4E
S11305005F4F672D862D0E944D0189A18823B1F389
S1130510EE0CFF1CEE0CFF1C81E090E08C0F9D1F85
S1130520E80EF91EF701EC0DFD1D8081F5018083B5
S113053003C01F5F143038F241E0682D892D0E94FA
S1130540CB00143020F00F5F043008F4A5CFA1963F
S11305500FB6F894DEBF0FBECDBFDF91CF911F91D0
S11305600F91FF90EF90DF90CF90BF90AF909F904E
S11305708F907F906F900895CF93C82F482F41702C
S113058064E080E00E94CB00C1FB442740F965E0B1
S113059080E00E94CB00C2FB442740F966E080E083
S11305A00E94CB00C3FB442740F967E080E00E942F
S11305B0CB00CF91089541E063E081E00E94CB003D
S11305C08FE99FE00197F1F700C0000040E063E08D
S11305D081E00E94CB000895CF93C82F41E061E0F1
S11305E081E00E94CB0040E062E081E00E94CB0009
S11305F08C2F82958F700E94BC020E94DB028C2F8C
S11306000E94BC020E94DB02CF910895CF93C82FB1
S113061040E061E081E00E94CB0040E062E081E0E4
S11306200E94CB008C2F82958F700E94BC020E9486
S1130630DB028C2F0E94BC020E94DB02CF91089542
S113064081E00E9406038FE39FE10197F1F700C068
S11306500000089541E061E081E00E94490041E02A
S113066062E081E00E94490041E063E081E00E9491
S1130670490041E064E080E00E94490041E065E017
S113068080E00E94490041E066E080E00E94490069
S113069041E067E080E00E9449002FE785EB91E0AC
S11306A0215080409040E1F700C0000082E00E94A9
S11306B0060388E20E9406038CE00E94060386E09B
S11306C00E9406030E94200308951F93CF93DF9393
S11306D0CDB7DEB72A970FB6F894DEBF0FBECDBFF5
S11306E06115710581059105C1F480E30E94EC0256
S11306F027C02AE030E040E050E00E944304E1E0FB
S1130700F0E0EC0FFD1FE10FF11D605D6083622FCF
S1130710732F842F952F1F5F01C010E061157105A1
S11307208105910531F70AC01150E1E0F0E0EC0FCA
S1130730FD1FE10FF11D80810E94EC021111F4CF25
S11307402A960FB6F894DEBF0FBECDBFDF91CF91CE
S11307501F910895CF93DF931F92CDB7DEB70E9408
S11307602A030E94C001CE0101960E940D028981D4
S11307708F3FC9F390ED980F9A3000F59091730074
S113078091110EC090917200990F292F220F220F00
S1130790920F980F9053909372000E94EC02E3CF53
S11307A090917100990F292F220F220F920F980F09
S11307B09053909371000E94EC02D5CF8B3231F0AC
S11307C08D3221F08A3211F08F3229F48093730034
S11307D00E94EC02C8CF8D33E1F5809173008B3217
S11307E049F018F48A32B1F02AC08D3259F08F32B0
S11307F0D9F025C09091720080917100890F809387
S113080070001DC08091720090917100891B8093CB
S1130810700015C08091720090917100899F802DA5
S11308201124809370000BC060917100662329F03D
S1130830809172000E943704682F609370000E94B8
S113084020036091700070E080E090E00E946503F6
S11308508ACF833409F087CF10927300109270000E
S113086010927100109272000E9420037CCF991B99
S113087079E004C0991F961708F0961B881F7A9593
S1130880C9F780950895A1E21A2EAA1BBB1BFD018E
S11308900DC0AA1FBB1FEE1FFF1FA217B307E4075B
S11308A0F50720F0A21BB30BE40BF50B661F771FB3
S11308B0881F991F1A9469F7609570958095909593
S11108C09B01AC01BD01CF010895F894FFCF58
S11308CE3738392F3435362A3132332D43303D2BD8
S9030000FC
